{
  "_format": "hh-sol-artifact-1",
  "contractName": "PabEpicNFT",
  "sourceName": "contracts/PabEpicNft.sol",
  "abi": [
    {
      "inputs": [],
      "stateMutability": "nonpayable",
      "type": "constructor"
    },
    {
      "anonymous": false,
      "inputs": [
        {
          "indexed": true,
          "internalType": "address",
          "name": "owner",
          "type": "address"
        },
        {
          "indexed": true,
          "internalType": "address",
          "name": "approved",
          "type": "address"
        },
        {
          "indexed": true,
          "internalType": "uint256",
          "name": "tokenId",
          "type": "uint256"
        }
      ],
      "name": "Approval",
      "type": "event"
    },
    {
      "anonymous": false,
      "inputs": [
        {
          "indexed": true,
          "internalType": "address",
          "name": "owner",
          "type": "address"
        },
        {
          "indexed": true,
          "internalType": "address",
          "name": "operator",
          "type": "address"
        },
        {
          "indexed": false,
          "internalType": "bool",
          "name": "approved",
          "type": "bool"
        }
      ],
      "name": "ApprovalForAll",
      "type": "event"
    },
    {
      "anonymous": false,
      "inputs": [
        {
          "indexed": false,
          "internalType": "address",
          "name": "sender",
          "type": "address"
        },
        {
          "indexed": false,
          "internalType": "uint256",
          "name": "tokenId",
          "type": "uint256"
        }
      ],
      "name": "NewEpicNFTMinted",
      "type": "event"
    },
    {
      "anonymous": false,
      "inputs": [
        {
          "indexed": true,
          "internalType": "address",
          "name": "previousOwner",
          "type": "address"
        },
        {
          "indexed": true,
          "internalType": "address",
          "name": "newOwner",
          "type": "address"
        }
      ],
      "name": "OwnershipTransferred",
      "type": "event"
    },
    {
      "anonymous": false,
      "inputs": [
        {
          "indexed": true,
          "internalType": "address",
          "name": "from",
          "type": "address"
        },
        {
          "indexed": true,
          "internalType": "address",
          "name": "to",
          "type": "address"
        },
        {
          "indexed": true,
          "internalType": "uint256",
          "name": "tokenId",
          "type": "uint256"
        }
      ],
      "name": "Transfer",
      "type": "event"
    },
    {
      "inputs": [
        {
          "internalType": "address",
          "name": "to",
          "type": "address"
        },
        {
          "internalType": "uint256",
          "name": "tokenId",
          "type": "uint256"
        }
      ],
      "name": "approve",
      "outputs": [],
      "stateMutability": "nonpayable",
      "type": "function"
    },
    {
      "inputs": [
        {
          "internalType": "address",
          "name": "owner",
          "type": "address"
        }
      ],
      "name": "balanceOf",
      "outputs": [
        {
          "internalType": "uint256",
          "name": "",
          "type": "uint256"
        }
      ],
      "stateMutability": "view",
      "type": "function"
    },
    {
      "inputs": [
        {
          "internalType": "uint256",
          "name": "tokenId",
          "type": "uint256"
        }
      ],
      "name": "getApproved",
      "outputs": [
        {
          "internalType": "address",
          "name": "",
          "type": "address"
        }
      ],
      "stateMutability": "view",
      "type": "function"
    },
    {
      "inputs": [
        {
          "internalType": "address",
          "name": "owner",
          "type": "address"
        },
        {
          "internalType": "address",
          "name": "operator",
          "type": "address"
        }
      ],
      "name": "isApprovedForAll",
      "outputs": [
        {
          "internalType": "bool",
          "name": "",
          "type": "bool"
        }
      ],
      "stateMutability": "view",
      "type": "function"
    },
    {
      "inputs": [],
      "name": "maxSupply",
      "outputs": [
        {
          "internalType": "uint256",
          "name": "",
          "type": "uint256"
        }
      ],
      "stateMutability": "view",
      "type": "function"
    },
    {
      "inputs": [],
      "name": "mintEpicNft",
      "outputs": [],
      "stateMutability": "payable",
      "type": "function"
    },
    {
      "inputs": [],
      "name": "name",
      "outputs": [
        {
          "internalType": "string",
          "name": "",
          "type": "string"
        }
      ],
      "stateMutability": "view",
      "type": "function"
    },
    {
      "inputs": [],
      "name": "owner",
      "outputs": [
        {
          "internalType": "address",
          "name": "",
          "type": "address"
        }
      ],
      "stateMutability": "view",
      "type": "function"
    },
    {
      "inputs": [
        {
          "internalType": "uint256",
          "name": "tokenId",
          "type": "uint256"
        }
      ],
      "name": "ownerOf",
      "outputs": [
        {
          "internalType": "address",
          "name": "",
          "type": "address"
        }
      ],
      "stateMutability": "view",
      "type": "function"
    },
    {
      "inputs": [],
      "name": "pabPrice",
      "outputs": [
        {
          "internalType": "uint256",
          "name": "",
          "type": "uint256"
        }
      ],
      "stateMutability": "view",
      "type": "function"
    },
    {
      "inputs": [
        {
          "internalType": "uint256",
          "name": "tokenId",
          "type": "uint256"
        },
        {
          "internalType": "string[]",
          "name": "words",
          "type": "string[]"
        }
      ],
      "name": "pickRandomWord",
      "outputs": [
        {
          "internalType": "string",
          "name": "",
          "type": "string"
        }
      ],
      "stateMutability": "view",
      "type": "function"
    },
    {
      "inputs": [],
      "name": "renounceOwnership",
      "outputs": [],
      "stateMutability": "nonpayable",
      "type": "function"
    },
    {
      "inputs": [
        {
          "internalType": "uint256",
          "name": "_tokenId",
          "type": "uint256"
        },
        {
          "internalType": "uint256",
          "name": "_salePrice",
          "type": "uint256"
        }
      ],
      "name": "royaltyInfo",
      "outputs": [
        {
          "internalType": "address",
          "name": "",
          "type": "address"
        },
        {
          "internalType": "uint256",
          "name": "",
          "type": "uint256"
        }
      ],
      "stateMutability": "view",
      "type": "function"
    },
    {
      "inputs": [
        {
          "internalType": "address",
          "name": "from",
          "type": "address"
        },
        {
          "internalType": "address",
          "name": "to",
          "type": "address"
        },
        {
          "internalType": "uint256",
          "name": "tokenId",
          "type": "uint256"
        }
      ],
      "name": "safeTransferFrom",
      "outputs": [],
      "stateMutability": "nonpayable",
      "type": "function"
    },
    {
      "inputs": [
        {
          "internalType": "address",
          "name": "from",
          "type": "address"
        },
        {
          "internalType": "address",
          "name": "to",
          "type": "address"
        },
        {
          "internalType": "uint256",
          "name": "tokenId",
          "type": "uint256"
        },
        {
          "internalType": "bytes",
          "name": "_data",
          "type": "bytes"
        }
      ],
      "name": "safeTransferFrom",
      "outputs": [],
      "stateMutability": "nonpayable",
      "type": "function"
    },
    {
      "inputs": [
        {
          "internalType": "address",
          "name": "operator",
          "type": "address"
        },
        {
          "internalType": "bool",
          "name": "approved",
          "type": "bool"
        }
      ],
      "name": "setApprovalForAll",
      "outputs": [],
      "stateMutability": "nonpayable",
      "type": "function"
    },
    {
      "inputs": [
        {
          "internalType": "address",
          "name": "newReceiver",
          "type": "address"
        },
        {
          "internalType": "uint96",
          "name": "newfeeNumerator",
          "type": "uint96"
        }
      ],
      "name": "setDefaultRoyalty",
      "outputs": [],
      "stateMutability": "nonpayable",
      "type": "function"
    },
    {
      "inputs": [
        {
          "internalType": "bytes4",
          "name": "interfaceId",
          "type": "bytes4"
        }
      ],
      "name": "supportsInterface",
      "outputs": [
        {
          "internalType": "bool",
          "name": "",
          "type": "bool"
        }
      ],
      "stateMutability": "view",
      "type": "function"
    },
    {
      "inputs": [],
      "name": "symbol",
      "outputs": [
        {
          "internalType": "string",
          "name": "",
          "type": "string"
        }
      ],
      "stateMutability": "view",
      "type": "function"
    },
    {
      "inputs": [
        {
          "internalType": "uint256",
          "name": "tokenId",
          "type": "uint256"
        }
      ],
      "name": "tokenURI",
      "outputs": [
        {
          "internalType": "string",
          "name": "",
          "type": "string"
        }
      ],
      "stateMutability": "view",
      "type": "function"
    },
    {
      "inputs": [],
      "name": "totalSupply",
      "outputs": [
        {
          "internalType": "uint256",
          "name": "",
          "type": "uint256"
        }
      ],
      "stateMutability": "view",
      "type": "function"
    },
    {
      "inputs": [
        {
          "internalType": "address",
          "name": "from",
          "type": "address"
        },
        {
          "internalType": "address",
          "name": "to",
          "type": "address"
        },
        {
          "internalType": "uint256",
          "name": "tokenId",
          "type": "uint256"
        }
      ],
      "name": "transferFrom",
      "outputs": [],
      "stateMutability": "nonpayable",
      "type": "function"
    },
    {
      "inputs": [
        {
          "internalType": "address",
          "name": "newOwner",
          "type": "address"
        }
      ],
      "name": "transferOwnership",
      "outputs": [],
      "stateMutability": "nonpayable",
      "type": "function"
    },
    {
      "inputs": [],
      "name": "withdraw",
      "outputs": [],
      "stateMutability": "nonpayable",
      "type": "function"
    }
  ],
  "bytecode": "0x608060405260405180610160016040528061012f8152602001620084e161012f9139600c908051906020019062000038929190620029a3565b5060405180610b6001604052806040518060400160405280600581526020017f5468696e6b00000000000000000000000000000000000000000000000000000081525081526020016040518060400160405280600481526020017f506c61790000000000000000000000000000000000000000000000000000000081525081526020016040518060400160405280600581526020017f44616e636500000000000000000000000000000000000000000000000000000081525081526020016040518060400160405280601d81526020017f4c697374656e2054686520426c61636b20536b69727473206d7573696300000081525081526020016040518060400160405280600e81526020017f43616c63756c617465206479647800000000000000000000000000000000000081525081526020016040518060400160405280600c81526020017f506162205468652042657374000000000000000000000000000000000000000081525081526020016040518060400160405280600a81526020017f446f20507573682075700000000000000000000000000000000000000000000081525081526020016040518060400160405280600d81526020017f4472696e6b2052656462756c6c0000000000000000000000000000000000000081525081526020016040518060400160405280600981526020017f476f6f676c65204974000000000000000000000000000000000000000000000081525081526020016040518060400160405280600681526020017f437265617465000000000000000000000000000000000000000000000000000081525081526020016040518060400160405280600481526020017f426c6f670000000000000000000000000000000000000000000000000000000081525081526020016040518060400160405280601381526020017f476f20546f776e68616c6c206d656574696e670000000000000000000000000081525081526020016040518060400160405280601881526020017f436f6d6d756e6963617465207769746820796f7572206578000000000000000081525081526020016040518060400160405280601181526020017f54616c6b20746f20796f757220626f737300000000000000000000000000000081525081526020016040518060400160405280601781526020017f5361792048656c6c6f20746f206120737472616e67657200000000000000000081525081526020016040518060400160405280601581526020017f4265204b696e6420746f206120737472616e676572000000000000000000000081525081526020016040518060400160405280600881526020017f576f726b206f757400000000000000000000000000000000000000000000000081525081526020016040518060400160405280600781526020017f426520636f6f6c0000000000000000000000000000000000000000000000000081525081526020016040518060400160405280600481526020017f57616c6b0000000000000000000000000000000000000000000000000000000081525081526020016040518060400160405280600d81526020017f52756e206c696b6520426f6c740000000000000000000000000000000000000081525081526020016040518060400160405280600581526020017f4c6561726e00000000000000000000000000000000000000000000000000000081525081526020016040518060400160405280600481526020017f436f64650000000000000000000000000000000000000000000000000000000081525081526020016040518060400160405280600481526020017f53696e670000000000000000000000000000000000000000000000000000000081525081526020016040518060400160405280600481526020017f526561640000000000000000000000000000000000000000000000000000000081525081526020016040518060400160405280600b81526020017f4472696e6b20776174657200000000000000000000000000000000000000000081525081526020016040518060400160405280600881526020017f426520726f79616c00000000000000000000000000000000000000000000000081525081526020016040518060400160405280600981526020017f576f726b2068617264000000000000000000000000000000000000000000000081525081526020016040518060400160405280601281526020017f476f2067657420736f6d6520636f66666565000000000000000000000000000081525081526020016040518060400160405280600381526020017f544444000000000000000000000000000000000000000000000000000000000081525081526020016040518060400160405280600d81526020017f43616c6c20796f7572206d6f6d0000000000000000000000000000000000000081525081526020016040518060400160405280600b81526020017f476f20776174636820545600000000000000000000000000000000000000000081525081526020016040518060400160405280601681526020017f47697665206d652061204241594320706c7a202e2e2e0000000000000000000081525081526020016040518060400160405280601b81526020017f446f6e277420776174636820596f757475626520616c6c20646179000000000081525081526020016040518060400160405280600d81526020017f57616b65207570206561726c790000000000000000000000000000000000000081525081526020016040518060400160405280600d81526020017f4b6e6f7720796f757273656c660000000000000000000000000000000000000081525081526020016040518060400160405280600d81526020017f506c617920466f6f7462616c6c0000000000000000000000000000000000000081525081526020016040518060400160405280600581526020017f506c616e7400000000000000000000000000000000000000000000000000000081525081526020016040518060400160405280600681526020017f49676e6f7265000000000000000000000000000000000000000000000000000081525081526020016040518060400160405280600681526020017f466f72676574000000000000000000000000000000000000000000000000000081525081526020016040518060400160405280600881526020017f52656d656d62657200000000000000000000000000000000000000000000000081525081526020016040518060400160405280600b81526020017f4265207468616e6b66756c00000000000000000000000000000000000000000081525081526020016040518060400160405280600381526020017f5a656e000000000000000000000000000000000000000000000000000000000081525081526020016040518060400160405280600381526020017f427579000000000000000000000000000000000000000000000000000000000081525081526020016040518060400160405280600481526020017f53656c6c0000000000000000000000000000000000000000000000000000000081525081526020016040518060400160405280600481526020017f484f444c0000000000000000000000000000000000000000000000000000000081525081526020016040518060400160405280600d81526020017f425549444c52756e20617761790000000000000000000000000000000000000081525081526020016040518060400160405280600781526020017f466f72676976650000000000000000000000000000000000000000000000000081525081526020016040518060400160405280600881526020017f426520686170707900000000000000000000000000000000000000000000000081525081526020016040518060400160405280600a81526020017f4561742064696e6e65720000000000000000000000000000000000000000000081525081526020016040518060400160405280600e81526020017f54616b6520796f75722074696d6500000000000000000000000000000000000081525081526020016040518060400160405280600781526020017f576869737065720000000000000000000000000000000000000000000000000081525081526020016040518060400160405280600481526020017f506f6f700000000000000000000000000000000000000000000000000000000081525081526020016040518060400160405280600381526020017f506565000000000000000000000000000000000000000000000000000000000081525081526020016040518060400160405280600b81526020017f476f2073686f7070696e6700000000000000000000000000000000000000000081525081526020016040518060400160405280600881526020017f42652066616e637900000000000000000000000000000000000000000000000081525081526020016040518060400160405280600981526020017f476f206162726f6164000000000000000000000000000000000000000000000081525081526020016040518060400160405280600b81526020017f54616b652061207265737400000000000000000000000000000000000000000081525081526020016040518060400160405280600d81526020017f427579206d6520636f666665650000000000000000000000000000000000000081525081526020016040518060400160405280601481526020017f4c6f6f6b2061726f756e64204c696e6b6564696e00000000000000000000000081525081526020016040518060400160405280601581526020017f4469766520696e746f20746865204f70656e736561000000000000000000000081525081526020016040518060400160405280600781526020017f42656c696576650000000000000000000000000000000000000000000000000081525081526020016040518060400160405280600581526020017f547275737400000000000000000000000000000000000000000000000000000081525081526020016040518060400160405280600981526020017f476f20746f20626564000000000000000000000000000000000000000000000081525081526020016040518060400160405280600581526020017f446f75627400000000000000000000000000000000000000000000000000000081525081526020016040518060400160405280600681526020017f54726176656c000000000000000000000000000000000000000000000000000081525081526020016040518060400160405280600a81526020017f446f204e6f7468696e670000000000000000000000000000000000000000000081525081526020016040518060400160405280600c81526020017f42757920457468657265756d000000000000000000000000000000000000000081525081526020016040518060400160405280600481526020017f4d696e650000000000000000000000000000000000000000000000000000000081525081526020016040518060400160405280600d81526020017f53656c6c20457468657265756d0000000000000000000000000000000000000081525081526020016040518060400160405280601181526020017f4e6574666c697820616e64204368696c6c00000000000000000000000000000081525081526020016040518060400160405280600581526020017f577269746500000000000000000000000000000000000000000000000000000081525081526020016040518060400160405280600481526020017f576169740000000000000000000000000000000000000000000000000000000081525081526020016040518060400160405280600d81526020017f536e6f6f7a6520616c61726d730000000000000000000000000000000000000081525081526020016040518060400160405280600e81526020017f4d7574652074686520536c61636b00000000000000000000000000000000000081525081526020016040518060400160405280601c81526020017f57617463682027323030313a41205370616365204f647973736579270000000081525081526020016040518060400160405280600781526020017f50726574656e640000000000000000000000000000000000000000000000000081525081526020016040518060400160405280600781526020017f526573746f72650000000000000000000000000000000000000000000000000081525081526020016040518060400160405280600581526020017f437261776c00000000000000000000000000000000000000000000000000000081525081526020016040518060400160405280600b81526020017f53706974206974206f757400000000000000000000000000000000000000000081525081526020016040518060400160405280600981526020017f5768697465204c6965000000000000000000000000000000000000000000000081525081526020016040518060400160405280600981526020017f446f6e2774204c6965000000000000000000000000000000000000000000000081525081526020016040518060400160405280600981526020017f436f6f706572617465000000000000000000000000000000000000000000000081525081526020016040518060400160405280600581526020017f436c696d6200000000000000000000000000000000000000000000000000000081525081526020016040518060400160405280600781526020017f44657374726f790000000000000000000000000000000000000000000000000081525081526020016040518060400160405280600a81526020017f436f6e747269627574650000000000000000000000000000000000000000000081525081526020016040518060400160405280600481526020017f446174650000000000000000000000000000000000000000000000000000000081525081526020016040518060400160405280600781526020017f476f20436c75620000000000000000000000000000000000000000000000000081525081526020016040518060400160405280601181526020017f5361766520746865204368696c6472656e00000000000000000000000000000081525081526020016040518060400160405280600e81526020017f4865616c2074686520776f726c6400000000000000000000000000000000000081525081526020016040518060400160405280601381526020017f4d616b6520612062657474657220706c6163650000000000000000000000000081525081526020016040518060400160405280600481526020017f4861636b00000000000000000000000000000000000000000000000000000000815250815250600d90605b6200154e92919062002a34565b5060405180606001604052806040518060400160405280600481526020017f4561726e0000000000000000000000000000000000000000000000000000000081525081526020016040518060400160405280600481526020017f4d696e740000000000000000000000000000000000000000000000000000000081525081526020016040518060400160405280600581526020017f50726f7665000000000000000000000000000000000000000000000000000000815250815250600e9060036200161b92919062002a9b565b50600d80549050600f55674563918244f400006010553480156200163e57600080fd5b506040518060400160405280600681526020017f506162546f5800000000000000000000000000000000000000000000000000008152506040518060400160405280600381526020017f50325800000000000000000000000000000000000000000000000000000000008152508160029080519060200190620016c3929190620029a3565b508060039080519060200190620016dc929190620029a3565b505050620016ff620016f36200177d60201b60201c565b6200178560201b60201c565b6001600a81905550620017526040518060400160405280601981526020017f5468697320697320506162457069634e66742e2057686f6121000000000000008152506200184b60201b6200120e1760201c565b62001766336102ee620018ee60201b60201c565b620017773362001a9160201b60201c565b62003a04565b600033905090565b6000600960009054906101000a900473ffffffffffffffffffffffffffffffffffffffff16905081600960006101000a81548173ffffffffffffffffffffffffffffffffffffffff021916908373ffffffffffffffffffffffffffffffffffffffff1602179055508173ffffffffffffffffffffffffffffffffffffffff168173ffffffffffffffffffffffffffffffffffffffff167f8be0079c531659141344cd1fd0a4f28419497f9722a3daafe3b4186f6b6457e060405160405180910390a35050565b620018eb8160405160240162001862919062003196565b6040516020818303038152906040527f41304fac000000000000000000000000000000000000000000000000000000007bffffffffffffffffffffffffffffffffffffffffffffffffffffffff19166020820180517bffffffffffffffffffffffffffffffffffffffffffffffffffffffff838183161783525050505062001eea60201b60201c565b50565b620018fe62001f1360201b60201c565b6bffffffffffffffffffffffff16816bffffffffffffffffffffffff1611156200195f576040517f08c379a00000000000000000000000000000000000000000000000000000000081526004016200195690620032a8565b60405180910390fd5b600073ffffffffffffffffffffffffffffffffffffffff168273ffffffffffffffffffffffffffffffffffffffff161415620019d2576040517f08c379a0000000000000000000000000000000000000000000000000000000008152600401620019c990620032ca565b60405180910390fd5b60405180604001604052808373ffffffffffffffffffffffffffffffffffffffff168152602001826bffffffffffffffffffffffff168152506000808201518160000160006101000a81548173ffffffffffffffffffffffffffffffffffffffff021916908373ffffffffffffffffffffffffffffffffffffffff16021790555060208201518160000160146101000a8154816bffffffffffffffffffffffff02191690836bffffffffffffffffffffffff1602179055509050505050565b600f5462001aab600b62001f1d60201b620012a71760201c565b111562001aef576040517f08c379a000000000000000000000000000000000000000000000000000000000815260040162001ae69062003286565b60405180910390fd5b600062001b08600b62001f1d60201b620012a71760201c565b9050600062001bf982600d805480602002602001604051908101604052809291908181526020016000905b8282101562001be957838290600052602060002001805462001b559062003515565b80601f016020809104026020016040519081016040528092919081815260200182805462001b839062003515565b801562001bd45780601f1062001ba85761010080835404028352916020019162001bd4565b820191906000526020600020905b81548152906001019060200180831162001bb657829003601f168201915b50505050508152602001906001019062001b33565b5050505062001f2b60201b60201c565b9050600062001cea83600e805480602002602001604051908101604052809291908181526020016000905b8282101562001cda57838290600052602060002001805462001c469062003515565b80601f016020809104026020016040519081016040528092919081815260200182805462001c749062003515565b801562001cc55780601f1062001c995761010080835404028352916020019162001cc5565b820191906000526020600020905b81548152906001019060200180831162001ca757829003601f168201915b50505050508152602001906001019062001c24565b5050505062001f2b60201b60201c565b90506000828260405160200162001d0392919062002fb5565b60405160208183030381529060405290506000600c848460405160200162001d2e9392919062002fea565b6040516020818303038152906040529050600062001d8f8362001d5c8462001fd960201b620012b51760201c565b60405160200162001d6f92919062003061565b60405160208183030381529060405262001fd960201b620012b51760201c565b905060008160405160200162001da69190620030b0565b604051602081830303815290604052905062001dc933886200218b60201b60201c565b62001ddb8782620021b160201b60201c565b62001df2600b6200223260201b620014541760201c565b62001e23604051806060016040528060258152602001620084bc6025913988336200224860201b6200146a1760201c565b62001e5a8160405160200162001e3a91906200303b565b6040516020818303038152906040526200184b60201b6200120e1760201c565b7febb98688741ffa4c7589bf325de30cf7becb63de567842e1ccdb6cb949fdc82c888860405162001e8d92919062003169565b60405180910390a162001ee06040518060400160405280601581526020017f2d2d2d2d2d2d2d2d2d2d2d2d2d2d2d2d2d2d2d2d0a00000000000000000000008152506200184b60201b6200120e1760201c565b5050505050505050565b60008151905060006a636f6e736f6c652e6c6f679050602083016000808483855afa5050505050565b6000612710905090565b600081600001549050919050565b6060600062001f7b835162001f4b86620022f160201b620015091760201c565b4260405160200162001f6093929190620030d6565b604051602081830303815290604052620024b360201b60201c565b905082518162001f8c9190620035a3565b905082818151811062001fc8577f4e487b7100000000000000000000000000000000000000000000000000000000600052603260045260246000fd5b602002602001015191505092915050565b606060008251141562001ffe5760405180602001604052806000815250905062002186565b600060405180606001604052806040815260200162008610604091399050600060036002855162002030919062003344565b6200203c9190620033a1565b60046200204a9190620033d9565b905060006020826200205d919062003344565b67ffffffffffffffff8111156200209d577f4e487b7100000000000000000000000000000000000000000000000000000000600052604160045260246000fd5b6040519080825280601f01601f191660200182016040528015620020d05781602001600182028036833780820191505090505b509050818152600183018586518101602084015b8183101562002141576003830192508251603f8160121c168501518253600182019150603f81600c1c168501518253600182019150603f8160061c168501518253600182019150603f8116850151825360018201915050620020e4565b6003895106600181146200215e57600281146200216f576200217a565b613d3d60f01b60028303526200217a565b603d60f81b60018303525b50505050508093505050505b919050565b620021ad828260405180602001604052806000815250620024e860201b60201c565b5050565b620021c2826200255660201b60201c565b62002204576040517f08c379a0000000000000000000000000000000000000000000000000000000008152600401620021fb9062003242565b60405180910390fd5b806008600084815260200190815260200160002090805190602001906200222d929190620029a3565b505050565b6001816000016000828254019250508190555050565b620022ec8383836040516024016200226393929190620031ba565b6040516020818303038152906040527fe3849f79000000000000000000000000000000000000000000000000000000007bffffffffffffffffffffffffffffffffffffffffffffffffffffffff19166020820180517bffffffffffffffffffffffffffffffffffffffffffffffffffffffff838183161783525050505062001eea60201b60201c565b505050565b606060008214156200233b576040518060400160405280600181526020017f30000000000000000000000000000000000000000000000000000000000000008152509050620024ae565b600082905060005b600082146200237357808062002359906200354b565b915050600a826200236b9190620033a1565b915062002343565b60008167ffffffffffffffff811115620023b6577f4e487b7100000000000000000000000000000000000000000000000000000000600052604160045260246000fd5b6040519080825280601f01601f191660200182016040528015620023e95781602001600182028036833780820191505090505b5090505b60008514620024a7576001826200240591906200343a565b9150600a85620024169190620035a3565b603062002424919062003344565b60f81b81838151811062002461577f4e487b7100000000000000000000000000000000000000000000000000000000600052603260045260246000fd5b60200101907effffffffffffffffffffffffffffffffffffffffffffffffffffffffffffff1916908160001a905350600a856200249f9190620033a1565b9450620023ed565b8093505050505b919050565b600081604051602001620024c8919062002f9c565b6040516020818303038152906040528051906020012060001c9050919050565b620024fa8383620025c260201b60201c565b6200250f6000848484620027bc60201b60201c565b62002551576040517f08c379a00000000000000000000000000000000000000000000000000000000081526004016200254890620031fe565b60405180910390fd5b505050565b60008073ffffffffffffffffffffffffffffffffffffffff166004600084815260200190815260200160002060009054906101000a900473ffffffffffffffffffffffffffffffffffffffff1673ffffffffffffffffffffffffffffffffffffffff1614159050919050565b600073ffffffffffffffffffffffffffffffffffffffff168273ffffffffffffffffffffffffffffffffffffffff16141562002635576040517f08c379a00000000000000000000000000000000000000000000000000000000081526004016200262c9062003264565b60405180910390fd5b62002646816200255660201b60201c565b1562002689576040517f08c379a0000000000000000000000000000000000000000000000000000000008152600401620026809062003220565b60405180910390fd5b6200269d600083836200297660201b60201c565b6001600560008473ffffffffffffffffffffffffffffffffffffffff1673ffffffffffffffffffffffffffffffffffffffff1681526020019081526020016000206000828254620026ef919062003344565b92505081905550816004600083815260200190815260200160002060006101000a81548173ffffffffffffffffffffffffffffffffffffffff021916908373ffffffffffffffffffffffffffffffffffffffff160217905550808273ffffffffffffffffffffffffffffffffffffffff16600073ffffffffffffffffffffffffffffffffffffffff167fddf252ad1be2c89b69c2b068fc378daa952ba7f163c4a11628f55a4df523b3ef60405160405180910390a4620027b8600083836200297b60201b60201c565b5050565b6000620027ea8473ffffffffffffffffffffffffffffffffffffffff166200298060201b620016b61760201c565b1562002969578373ffffffffffffffffffffffffffffffffffffffff1663150b7a026200281c6200177d60201b60201c565b8786866040518563ffffffff1660e01b815260040162002840949392919062003115565b602060405180830381600087803b1580156200285b57600080fd5b505af19250505080156200288f57506040513d601f19601f820116820180604052508101906200288c919062002ba6565b60015b62002918573d8060008114620028c2576040519150601f19603f3d011682016040523d82523d6000602084013e620028c7565b606091505b5060008151141562002910576040517f08c379a00000000000000000000000000000000000000000000000000000000081526004016200290790620031fe565b60405180910390fd5b805181602001fd5b63150b7a0260e01b7bffffffffffffffffffffffffffffffffffffffffffffffffffffffff1916817bffffffffffffffffffffffffffffffffffffffffffffffffffffffff1916149150506200296e565b600190505b949350505050565b505050565b505050565b6000808273ffffffffffffffffffffffffffffffffffffffff163b119050919050565b828054620029b19062003515565b90600052602060002090601f016020900481019282620029d5576000855562002a21565b82601f10620029f057805160ff191683800117855562002a21565b8280016001018555821562002a21579182015b8281111562002a2057825182559160200191906001019062002a03565b5b50905062002a30919062002b02565b5090565b82805482825590600052602060002090810192821562002a88579160200282015b8281111562002a8757825182908051906020019062002a76929190620029a3565b509160200191906001019062002a55565b5b50905062002a97919062002b21565b5090565b82805482825590600052602060002090810192821562002aef579160200282015b8281111562002aee57825182908051906020019062002add929190620029a3565b509160200191906001019062002abc565b5b50905062002afe919062002b21565b5090565b5b8082111562002b1d57600081600090555060010162002b03565b5090565b5b8082111562002b45576000818162002b3b919062002b49565b5060010162002b22565b5090565b50805462002b579062003515565b6000825580601f1062002b6b575062002b8c565b601f01602090049060005260206000209081019062002b8b919062002b02565b5b50565b60008151905062002ba081620039ea565b92915050565b60006020828403121562002bb957600080fd5b600062002bc98482850162002b8f565b91505092915050565b62002bdd8162003475565b82525050565b600062002bf08262003301565b62002bfc818562003317565b935062002c0e818560208601620034df565b62002c198162003668565b840191505092915050565b600062002c31826200330c565b62002c3d818562003328565b935062002c4f818560208601620034df565b62002c5a8162003668565b840191505092915050565b600062002c72826200330c565b62002c7e818562003339565b935062002c90818560208601620034df565b80840191505092915050565b6000815462002cab8162003515565b62002cb7818662003339565b9450600182166000811462002cd5576001811462002ce75762002d1e565b60ff1983168652818601935062002d1e565b62002cf285620032ec565b60005b8381101562002d165781548189015260018201915060208101905062002cf5565b838801955050505b50505092915050565b600062002d3660258362003339565b915062002d438262003679565b602582019050919050565b600062002d5d60328362003328565b915062002d6a82620036c8565b604082019050919050565b600062002d84601c8362003328565b915062002d918262003717565b602082019050919050565b600062002dab600d8362003339565b915062002db88262003740565b600d82019050919050565b600062002dd260048362003339565b915062002ddf8262003769565b600482019050919050565b600062002df9602e8362003328565b915062002e068262003792565b604082019050919050565b600062002e2060028362003339565b915062002e2d82620037e1565b600282019050919050565b600062002e4760208362003328565b915062002e54826200380a565b602082019050919050565b600062002e6e60218362003328565b915062002e7b8262003833565b604082019050919050565b600062002e95600a8362003339565b915062002ea28262003882565b600a82019050919050565b600062002ebc601d8362003339565b915062002ec982620038ab565b601d82019050919050565b600062002ee3602a8362003328565b915062002ef082620038d4565b604082019050919050565b600062002f0a60198362003328565b915062002f178262003923565b602082019050919050565b600062002f3160498362003339565b915062002f3e826200394c565b604982019050919050565b600062002f5860028362003339565b915062002f6582620039c1565b600282019050919050565b62002f7b81620034d5565b82525050565b62002f9662002f9082620034d5565b62003599565b82525050565b600062002faa828462002c65565b915081905092915050565b600062002fc3828562002c65565b915062002fd08262002f49565b915062002fde828462002c65565b91508190509392505050565b600062002ff8828662002c9c565b915062003006828562002c65565b9150620030138262002dc3565b915062003021828462002c65565b91506200302e8262002d9c565b9150819050949350505050565b6000620030488262002d27565b915062003056828462002c65565b915081905092915050565b60006200306e8262002e86565b91506200307c828562002c65565b9150620030898262002f22565b915062003097828462002c65565b9150620030a48262002e11565b91508190509392505050565b6000620030bd8262002ead565b9150620030cb828462002c65565b915081905092915050565b6000620030e4828662002f81565b602082019150620030f6828562002c65565b915062003104828462002f81565b602082019150819050949350505050565b60006080820190506200312c600083018762002bd2565b6200313b602083018662002bd2565b6200314a604083018562002f70565b81810360608301526200315e818462002be3565b905095945050505050565b600060408201905062003180600083018562002bd2565b6200318f602083018462002f70565b9392505050565b60006020820190508181036000830152620031b2818462002c24565b905092915050565b60006060820190508181036000830152620031d6818662002c24565b9050620031e7602083018562002f70565b620031f6604083018462002bd2565b949350505050565b60006020820190508181036000830152620032198162002d4e565b9050919050565b600060208201905081810360008301526200323b8162002d75565b9050919050565b600060208201905081810360008301526200325d8162002dea565b9050919050565b600060208201905081810360008301526200327f8162002e38565b9050919050565b60006020820190508181036000830152620032a18162002e5f565b9050919050565b60006020820190508181036000830152620032c38162002ed4565b9050919050565b60006020820190508181036000830152620032e58162002efb565b9050919050565b60008190508160005260206000209050919050565b600081519050919050565b600081519050919050565b600082825260208201905092915050565b600082825260208201905092915050565b600081905092915050565b60006200335182620034d5565b91506200335e83620034d5565b9250827fffffffffffffffffffffffffffffffffffffffffffffffffffffffffffffffff03821115620033965762003395620035db565b5b828201905092915050565b6000620033ae82620034d5565b9150620033bb83620034d5565b925082620033ce57620033cd6200360a565b5b828204905092915050565b6000620033e682620034d5565b9150620033f383620034d5565b9250817fffffffffffffffffffffffffffffffffffffffffffffffffffffffffffffffff04831182151516156200342f576200342e620035db565b5b828202905092915050565b60006200344782620034d5565b91506200345483620034d5565b9250828210156200346a5762003469620035db565b5b828203905092915050565b60006200348282620034b5565b9050919050565b60007fffffffff0000000000000000000000000000000000000000000000000000000082169050919050565b600073ffffffffffffffffffffffffffffffffffffffff82169050919050565b6000819050919050565b60005b83811015620034ff578082015181840152602081019050620034e2565b838111156200350f576000848401525b50505050565b600060028204905060018216806200352e57607f821691505b6020821081141562003545576200354462003639565b5b50919050565b60006200355882620034d5565b91507fffffffffffffffffffffffffffffffffffffffffffffffffffffffffffffffff8214156200358e576200358d620035db565b5b600182019050919050565b6000819050919050565b6000620035b082620034d5565b9150620035bd83620034d5565b925082620035d057620035cf6200360a565b5b828206905092915050565b7f4e487b7100000000000000000000000000000000000000000000000000000000600052601160045260246000fd5b7f4e487b7100000000000000000000000000000000000000000000000000000000600052601260045260246000fd5b7f4e487b7100000000000000000000000000000000000000000000000000000000600052602260045260246000fd5b6000601f19601f8301169050919050565b7f68747470733a2f2f6e6674707265766965772e30786465762e636f6465732f3f60008201527f636f64653d000000000000000000000000000000000000000000000000000000602082015250565b7f4552433732313a207472616e7366657220746f206e6f6e20455243373231526560008201527f63656976657220696d706c656d656e7465720000000000000000000000000000602082015250565b7f4552433732313a20746f6b656e20616c7265616479206d696e74656400000000600082015250565b7f3c2f746578743e3c2f7376673e00000000000000000000000000000000000000600082015250565b7f0a546f0a00000000000000000000000000000000000000000000000000000000600082015250565b7f45524337323155524953746f726167653a2055524920736574206f66206e6f6e60008201527f6578697374656e7420746f6b656e000000000000000000000000000000000000602082015250565b7f227d000000000000000000000000000000000000000000000000000000000000600082015250565b7f4552433732313a206d696e7420746f20746865207a65726f2061646472657373600082015250565b7f4e6f7420656e6f75676820546f6b656e20726573657276656420616e796d6f7260008201527f6500000000000000000000000000000000000000000000000000000000000000602082015250565b7f7b226e616d65223a202200000000000000000000000000000000000000000000600082015250565b7f646174613a6170706c69636174696f6e2f6a736f6e3b6261736536342c000000600082015250565b7f455243323938313a20726f79616c7479206665652077696c6c2065786365656460008201527f2073616c65507269636500000000000000000000000000000000000000000000602082015250565b7f455243323938313a20696e76616c696420726563656976657200000000000000600082015250565b7f222c20226465736372697074696f6e223a2022596f7572204570696320576f7260008201527f6473222c2022696d616765223a2022646174613a696d6167652f7376672b786d60208201527f6c3b6261736536342c0000000000000000000000000000000000000000000000604082015250565b7f546f000000000000000000000000000000000000000000000000000000000000600082015250565b620039f58162003489565b811462003a0157600080fd5b50565b614aa88062003a146000396000f3fe60806040526004361061014b5760003560e01c80636352211e116100b6578063a22cb4651161006f578063a22cb46514610472578063b88d4fde1461049b578063c87b56dd146104c4578063d5abeb0114610501578063e985e9c51461052c578063f2fde38b146105695761014b565b80636352211e1461034e57806370a082311461038b578063715018a6146103c857806375af75fe146103df5780638da5cb5b1461041c57806395d89b41146104475761014b565b806323b872dd1161010857806323b872dd146102725780632a55205a1461029b5780632e6257c0146102d95780633ccfd60b146102e357806341d49609146102fa57806342842e0e146103255761014b565b806301ffc9a71461015057806304634d8d1461018d57806306fdde03146101b6578063081812fc146101e1578063095ea7b31461021e57806318160ddd14610247575b600080fd5b34801561015c57600080fd5b5061017760048036038101906101729190613056565b610592565b6040516101849190613962565b60405180910390f35b34801561019957600080fd5b506101b460048036038101906101af919061301a565b6105a4565b005b3480156101c257600080fd5b506101cb61062e565b6040516101d8919061397d565b60405180910390f35b3480156101ed57600080fd5b50610208600480360381019061020391906130a8565b6106c0565b60405161021591906138d2565b60405180910390f35b34801561022a57600080fd5b5061024560048036038101906102409190612fde565b610745565b005b34801561025357600080fd5b5061025c61085d565b6040516102699190613cdd565b60405180910390f35b34801561027e57600080fd5b5061029960048036038101906102949190612ed8565b61086e565b005b3480156102a757600080fd5b506102c260048036038101906102bd9190613125565b6108ce565b6040516102d0929190613939565b60405180910390f35b6102e1610ab9565b005b3480156102ef57600080fd5b506102f8610b09565b005b34801561030657600080fd5b5061030f610c8a565b60405161031c9190613cdd565b60405180910390f35b34801561033157600080fd5b5061034c60048036038101906103479190612ed8565b610c90565b005b34801561035a57600080fd5b50610375600480360381019061037091906130a8565b610cb0565b60405161038291906138d2565b60405180910390f35b34801561039757600080fd5b506103b260048036038101906103ad9190612e73565b610d62565b6040516103bf9190613cdd565b60405180910390f35b3480156103d457600080fd5b506103dd610e1a565b005b3480156103eb57600080fd5b50610406600480360381019061040191906130d1565b610ea2565b604051610413919061397d565b60405180910390f35b34801561042857600080fd5b50610431610f36565b60405161043e91906138d2565b60405180910390f35b34801561045357600080fd5b5061045c610f60565b604051610469919061397d565b60405180910390f35b34801561047e57600080fd5b5061049960048036038101906104949190612fa2565b610ff2565b005b3480156104a757600080fd5b506104c260048036038101906104bd9190612f27565b611008565b005b3480156104d057600080fd5b506104eb60048036038101906104e691906130a8565b61106a565b6040516104f8919061397d565b60405180910390f35b34801561050d57600080fd5b5061051661107c565b6040516105239190613cdd565b60405180910390f35b34801561053857600080fd5b50610553600480360381019061054e9190612e9c565b611082565b6040516105609190613962565b60405180910390f35b34801561057557600080fd5b50610590600480360381019061058b9190612e73565b611116565b005b600061059d826116d9565b9050919050565b6105ac6116eb565b73ffffffffffffffffffffffffffffffffffffffff166105ca610f36565b73ffffffffffffffffffffffffffffffffffffffff1614610620576040517f08c379a000000000000000000000000000000000000000000000000000000000815260040161061790613bbd565b60405180910390fd5b61062a82826116f3565b5050565b60606002805461063d90613ff1565b80601f016020809104026020016040519081016040528092919081815260200182805461066990613ff1565b80156106b65780601f1061068b576101008083540402835291602001916106b6565b820191906000526020600020905b81548152906001019060200180831161069957829003601f168201915b5050505050905090565b60006106cb82611888565b61070a576040517f08c379a000000000000000000000000000000000000000000000000000000000815260040161070190613b9d565b60405180910390fd5b6006600083815260200190815260200160002060009054906101000a900473ffffffffffffffffffffffffffffffffffffffff169050919050565b600061075082610cb0565b90508073ffffffffffffffffffffffffffffffffffffffff168373ffffffffffffffffffffffffffffffffffffffff1614156107c1576040517f08c379a00000000000000000000000000000000000000000000000000000000081526004016107b890613c1d565b60405180910390fd5b8073ffffffffffffffffffffffffffffffffffffffff166107e06116eb565b73ffffffffffffffffffffffffffffffffffffffff16148061080f575061080e816108096116eb565b611082565b5b61084e576040517f08c379a000000000000000000000000000000000000000000000000000000000815260040161084590613abd565b60405180910390fd5b61085883836118f4565b505050565b6000610869600b6112a7565b905090565b61087f6108796116eb565b826119ad565b6108be576040517f08c379a00000000000000000000000000000000000000000000000000000000081526004016108b590613c5d565b60405180910390fd5b6108c9838383611a8b565b505050565b6000806000600160008681526020019081526020016000206040518060400160405290816000820160009054906101000a900473ffffffffffffffffffffffffffffffffffffffff1673ffffffffffffffffffffffffffffffffffffffff1673ffffffffffffffffffffffffffffffffffffffff1681526020016000820160149054906101000a90046bffffffffffffffffffffffff166bffffffffffffffffffffffff166bffffffffffffffffffffffff16815250509050600073ffffffffffffffffffffffffffffffffffffffff16816000015173ffffffffffffffffffffffffffffffffffffffff161415610a645760006040518060400160405290816000820160009054906101000a900473ffffffffffffffffffffffffffffffffffffffff1673ffffffffffffffffffffffffffffffffffffffff1673ffffffffffffffffffffffffffffffffffffffff1681526020016000820160149054906101000a90046bffffffffffffffffffffffff166bffffffffffffffffffffffff166bffffffffffffffffffffffff168152505090505b6000610a6e611cf2565b6bffffffffffffffffffffffff1682602001516bffffffffffffffffffffffff1686610a9a9190613e95565b610aa49190613e64565b90508160000151819350935050509250929050565b346010541115610afe576040517f08c379a0000000000000000000000000000000000000000000000000000000008152600401610af590613bfd565b60405180910390fd5b610b0733611cfc565b565b610b116116eb565b73ffffffffffffffffffffffffffffffffffffffff16610b2f610f36565b73ffffffffffffffffffffffffffffffffffffffff1614610b85576040517f08c379a0000000000000000000000000000000000000000000000000000000008152600401610b7c90613bbd565b60405180910390fd5b6002600a541415610bcb576040517f08c379a0000000000000000000000000000000000000000000000000000000008152600401610bc290613c9d565b60405180910390fd5b6002600a8190555060003373ffffffffffffffffffffffffffffffffffffffff1647604051610bf990613884565b60006040518083038185875af1925050503d8060008114610c36576040519150601f19603f3d011682016040523d82523d6000602084013e610c3b565b606091505b5050905080610c7f576040517f08c379a0000000000000000000000000000000000000000000000000000000008152600401610c7690613c3d565b60405180910390fd5b506001600a81905550565b60105481565b610cab83838360405180602001604052806000815250611008565b505050565b6000806004600084815260200190815260200160002060009054906101000a900473ffffffffffffffffffffffffffffffffffffffff169050600073ffffffffffffffffffffffffffffffffffffffff168173ffffffffffffffffffffffffffffffffffffffff161415610d59576040517f08c379a0000000000000000000000000000000000000000000000000000000008152600401610d5090613afd565b60405180910390fd5b80915050919050565b60008073ffffffffffffffffffffffffffffffffffffffff168273ffffffffffffffffffffffffffffffffffffffff161415610dd3576040517f08c379a0000000000000000000000000000000000000000000000000000000008152600401610dca90613add565b60405180910390fd5b600560008373ffffffffffffffffffffffffffffffffffffffff1673ffffffffffffffffffffffffffffffffffffffff168152602001908152602001600020549050919050565b610e226116eb565b73ffffffffffffffffffffffffffffffffffffffff16610e40610f36565b73ffffffffffffffffffffffffffffffffffffffff1614610e96576040517f08c379a0000000000000000000000000000000000000000000000000000000008152600401610e8d90613bbd565b60405180910390fd5b610ea060006120a9565b565b60606000610edb8351610eb486611509565b42604051602001610ec793929190613899565b60405160208183030381529060405261216f565b9050825181610eea91906140a7565b9050828181518110610f25577f4e487b7100000000000000000000000000000000000000000000000000000000600052603260045260246000fd5b602002602001015191505092915050565b6000600960009054906101000a900473ffffffffffffffffffffffffffffffffffffffff16905090565b606060038054610f6f90613ff1565b80601f0160208091040260200160405190810160405280929190818152602001828054610f9b90613ff1565b8015610fe85780601f10610fbd57610100808354040283529160200191610fe8565b820191906000526020600020905b815481529060010190602001808311610fcb57829003601f168201915b5050505050905090565b611004610ffd6116eb565b83836121a2565b5050565b6110196110136116eb565b836119ad565b611058576040517f08c379a000000000000000000000000000000000000000000000000000000000815260040161104f90613c5d565b60405180910390fd5b6110648484848461230f565b50505050565b60606110758261236b565b9050919050565b600f5481565b6000600760008473ffffffffffffffffffffffffffffffffffffffff1673ffffffffffffffffffffffffffffffffffffffff16815260200190815260200160002060008373ffffffffffffffffffffffffffffffffffffffff1673ffffffffffffffffffffffffffffffffffffffff16815260200190815260200160002060009054906101000a900460ff16905092915050565b61111e6116eb565b73ffffffffffffffffffffffffffffffffffffffff1661113c610f36565b73ffffffffffffffffffffffffffffffffffffffff1614611192576040517f08c379a000000000000000000000000000000000000000000000000000000000815260040161118990613bbd565b60405180910390fd5b600073ffffffffffffffffffffffffffffffffffffffff168173ffffffffffffffffffffffffffffffffffffffff161415611202576040517f08c379a00000000000000000000000000000000000000000000000000000000081526004016111f9906139fd565b60405180910390fd5b61120b816120a9565b50565b6112a481604051602401611222919061397d565b6040516020818303038152906040527f41304fac000000000000000000000000000000000000000000000000000000007bffffffffffffffffffffffffffffffffffffffffffffffffffffffff19166020820180517bffffffffffffffffffffffffffffffffffffffffffffffffffffffff83818316178352505050506124bd565b50565b600081600001549050919050565b60606000825114156112d85760405180602001604052806000815250905061144f565b6000604051806060016040528060408152602001614a3360409139905060006003600285516113079190613e0e565b6113119190613e64565b600461131d9190613e95565b9050600060208261132e9190613e0e565b67ffffffffffffffff81111561136d577f4e487b7100000000000000000000000000000000000000000000000000000000600052604160045260246000fd5b6040519080825280601f01601f19166020018201604052801561139f5781602001600182028036833780820191505090505b509050818152600183018586518101602084015b8183101561140e576003830192508251603f8160121c168501518253600182019150603f81600c1c168501518253600182019150603f8160061c168501518253600182019150603f81168501518253600182019150506113b3565b600389510660018114611428576002811461143857611443565b613d3d60f01b6002830352611443565b603d60f81b60018303525b50505050508093505050505b919050565b6001816000016000828254019250508190555050565b6115048383836040516024016114829392919061399f565b6040516020818303038152906040527fe3849f79000000000000000000000000000000000000000000000000000000007bffffffffffffffffffffffffffffffffffffffffffffffffffffffff19166020820180517bffffffffffffffffffffffffffffffffffffffffffffffffffffffff83818316178352505050506124bd565b505050565b60606000821415611551576040518060400160405280600181526020017f300000000000000000000000000000000000000000000000000000000000000081525090506116b1565b600082905060005b6000821461158357808061156c90614054565b915050600a8261157c9190613e64565b9150611559565b60008167ffffffffffffffff8111156115c5577f4e487b7100000000000000000000000000000000000000000000000000000000600052604160045260246000fd5b6040519080825280601f01601f1916602001820160405280156115f75781602001600182028036833780820191505090505b5090505b600085146116aa576001826116109190613eef565b9150600a8561161f91906140a7565b603061162b9190613e0e565b60f81b818381518110611667577f4e487b7100000000000000000000000000000000000000000000000000000000600052603260045260246000fd5b60200101907effffffffffffffffffffffffffffffffffffffffffffffffffffffffffffff1916908160001a905350600a856116a39190613e64565b94506115fb565b8093505050505b919050565b6000808273ffffffffffffffffffffffffffffffffffffffff163b119050919050565b60006116e4826124e6565b9050919050565b600033905090565b6116fb611cf2565b6bffffffffffffffffffffffff16816bffffffffffffffffffffffff161115611759576040517f08c379a000000000000000000000000000000000000000000000000000000000815260040161175090613c7d565b60405180910390fd5b600073ffffffffffffffffffffffffffffffffffffffff168273ffffffffffffffffffffffffffffffffffffffff1614156117c9576040517f08c379a00000000000000000000000000000000000000000000000000000000081526004016117c090613cbd565b60405180910390fd5b60405180604001604052808373ffffffffffffffffffffffffffffffffffffffff168152602001826bffffffffffffffffffffffff168152506000808201518160000160006101000a81548173ffffffffffffffffffffffffffffffffffffffff021916908373ffffffffffffffffffffffffffffffffffffffff16021790555060208201518160000160146101000a8154816bffffffffffffffffffffffff02191690836bffffffffffffffffffffffff1602179055509050505050565b60008073ffffffffffffffffffffffffffffffffffffffff166004600084815260200190815260200160002060009054906101000a900473ffffffffffffffffffffffffffffffffffffffff1673ffffffffffffffffffffffffffffffffffffffff1614159050919050565b816006600083815260200190815260200160002060006101000a81548173ffffffffffffffffffffffffffffffffffffffff021916908373ffffffffffffffffffffffffffffffffffffffff160217905550808273ffffffffffffffffffffffffffffffffffffffff1661196783610cb0565b73ffffffffffffffffffffffffffffffffffffffff167f8c5be1e5ebec7d5bd14f71427d1e84f3dd0314c0f7b2291e5b200ac8c7c3b92560405160405180910390a45050565b60006119b882611888565b6119f7576040517f08c379a00000000000000000000000000000000000000000000000000000000081526004016119ee90613a9d565b60405180910390fd5b6000611a0283610cb0565b90508073ffffffffffffffffffffffffffffffffffffffff168473ffffffffffffffffffffffffffffffffffffffff161480611a7157508373ffffffffffffffffffffffffffffffffffffffff16611a59846106c0565b73ffffffffffffffffffffffffffffffffffffffff16145b80611a825750611a818185611082565b5b91505092915050565b8273ffffffffffffffffffffffffffffffffffffffff16611aab82610cb0565b73ffffffffffffffffffffffffffffffffffffffff1614611b01576040517f08c379a0000000000000000000000000000000000000000000000000000000008152600401611af890613a1d565b60405180910390fd5b600073ffffffffffffffffffffffffffffffffffffffff168273ffffffffffffffffffffffffffffffffffffffff161415611b71576040517f08c379a0000000000000000000000000000000000000000000000000000000008152600401611b6890613a5d565b60405180910390fd5b611b7c8383836125c8565b611b876000826118f4565b6001600560008573ffffffffffffffffffffffffffffffffffffffff1673ffffffffffffffffffffffffffffffffffffffff1681526020019081526020016000206000828254611bd79190613eef565b925050819055506001600560008473ffffffffffffffffffffffffffffffffffffffff1673ffffffffffffffffffffffffffffffffffffffff1681526020019081526020016000206000828254611c2e9190613e0e565b92505081905550816004600083815260200190815260200160002060006101000a81548173ffffffffffffffffffffffffffffffffffffffff021916908373ffffffffffffffffffffffffffffffffffffffff160217905550808273ffffffffffffffffffffffffffffffffffffffff168473ffffffffffffffffffffffffffffffffffffffff167fddf252ad1be2c89b69c2b068fc378daa952ba7f163c4a11628f55a4df523b3ef60405160405180910390a4611ced8383836125cd565b505050565b6000612710905090565b600f54611d09600b6112a7565b1115611d4a576040517f08c379a0000000000000000000000000000000000000000000000000000000008152600401611d4190613b5d565b60405180910390fd5b6000611d56600b6112a7565b90506000611e3582600d805480602002602001604051908101604052809291908181526020016000905b82821015611e2c578382906000526020600020018054611d9f90613ff1565b80601f0160208091040260200160405190810160405280929190818152602001828054611dcb90613ff1565b8015611e185780601f10611ded57610100808354040283529160200191611e18565b820191906000526020600020905b815481529060010190602001808311611dfb57829003601f168201915b505050505081526020019060010190611d80565b50505050610ea2565b90506000611f1483600e805480602002602001604051908101604052809291908181526020016000905b82821015611f0b578382906000526020600020018054611e7e90613ff1565b80601f0160208091040260200160405190810160405280929190818152602001828054611eaa90613ff1565b8015611ef75780601f10611ecc57610100808354040283529160200191611ef7565b820191906000526020600020905b815481529060010190602001808311611eda57829003601f168201915b505050505081526020019060010190611e5f565b50505050610ea2565b905060008282604051602001611f2b929190613785565b60405160208183030381529060405290506000600c8484604051602001611f54939291906137b4565b60405160208183030381529060405290506000611f9983611f74846112b5565b604051602001611f8592919061381d565b6040516020818303038152906040526112b5565b9050600081604051602001611fae9190613862565b6040516020818303038152906040529050611fc933886125d2565b611fd387826125f0565b611fdd600b611454565b612000604051806060016040528060258152602001614a0e60259139883361146a565b6120288160405160200161201491906137fb565b60405160208183030381529060405261120e565b7febb98688741ffa4c7589bf325de30cf7becb63de567842e1ccdb6cb949fdc82c8888604051612059929190613939565b60405180910390a161209f6040518060400160405280601581526020017f2d2d2d2d2d2d2d2d2d2d2d2d2d2d2d2d2d2d2d2d0a000000000000000000000081525061120e565b5050505050505050565b6000600960009054906101000a900473ffffffffffffffffffffffffffffffffffffffff16905081600960006101000a81548173ffffffffffffffffffffffffffffffffffffffff021916908373ffffffffffffffffffffffffffffffffffffffff1602179055508173ffffffffffffffffffffffffffffffffffffffff168173ffffffffffffffffffffffffffffffffffffffff167f8be0079c531659141344cd1fd0a4f28419497f9722a3daafe3b4186f6b6457e060405160405180910390a35050565b600081604051602001612182919061374a565b6040516020818303038152906040528051906020012060001c9050919050565b8173ffffffffffffffffffffffffffffffffffffffff168373ffffffffffffffffffffffffffffffffffffffff161415612211576040517f08c379a000000000000000000000000000000000000000000000000000000000815260040161220890613a7d565b60405180910390fd5b80600760008573ffffffffffffffffffffffffffffffffffffffff1673ffffffffffffffffffffffffffffffffffffffff16815260200190815260200160002060008473ffffffffffffffffffffffffffffffffffffffff1673ffffffffffffffffffffffffffffffffffffffff16815260200190815260200160002060006101000a81548160ff0219169083151502179055508173ffffffffffffffffffffffffffffffffffffffff168373ffffffffffffffffffffffffffffffffffffffff167f17307eab39ab6107e8899845ad3d59bd9653f200f220920489ca2b5937696c31836040516123029190613962565b60405180910390a3505050565b61231a848484611a8b565b61232684848484612664565b612365576040517f08c379a000000000000000000000000000000000000000000000000000000000815260040161235c906139dd565b60405180910390fd5b50505050565b606061237682611888565b6123b5576040517f08c379a00000000000000000000000000000000000000000000000000000000081526004016123ac90613b7d565b60405180910390fd5b60006008600084815260200190815260200160002080546123d590613ff1565b80601f016020809104026020016040519081016040528092919081815260200182805461240190613ff1565b801561244e5780601f106124235761010080835404028352916020019161244e565b820191906000526020600020905b81548152906001019060200180831161243157829003601f168201915b50505050509050600061245f6127fb565b90506000815114156124755781925050506124b8565b6000825111156124aa578082604051602001612492929190613761565b604051602081830303815290604052925050506124b8565b6124b384612812565b925050505b919050565b60008151905060006a636f6e736f6c652e6c6f679050602083016000808483855afa5050505050565b60007f80ac58cd000000000000000000000000000000000000000000000000000000007bffffffffffffffffffffffffffffffffffffffffffffffffffffffff1916827bffffffffffffffffffffffffffffffffffffffffffffffffffffffff191614806125b157507f5b5e139f000000000000000000000000000000000000000000000000000000007bffffffffffffffffffffffffffffffffffffffffffffffffffffffff1916827bffffffffffffffffffffffffffffffffffffffffffffffffffffffff1916145b806125c157506125c0826128b9565b5b9050919050565b505050565b505050565b6125ec828260405180602001604052806000815250612933565b5050565b6125f982611888565b612638576040517f08c379a000000000000000000000000000000000000000000000000000000000815260040161262f90613b1d565b60405180910390fd5b8060086000848152602001908152602001600020908051906020019061265f929190612bd2565b505050565b60006126858473ffffffffffffffffffffffffffffffffffffffff166116b6565b156127ee578373ffffffffffffffffffffffffffffffffffffffff1663150b7a026126ae6116eb565b8786866040518563ffffffff1660e01b81526004016126d094939291906138ed565b602060405180830381600087803b1580156126ea57600080fd5b505af192505050801561271b57506040513d601f19601f82011682018060405250810190612718919061307f565b60015b61279e573d806000811461274b576040519150601f19603f3d011682016040523d82523d6000602084013e612750565b606091505b50600081511415612796576040517f08c379a000000000000000000000000000000000000000000000000000000000815260040161278d906139dd565b60405180910390fd5b805181602001fd5b63150b7a0260e01b7bffffffffffffffffffffffffffffffffffffffffffffffffffffffff1916817bffffffffffffffffffffffffffffffffffffffffffffffffffffffff1916149150506127f3565b600190505b949350505050565b606060405180602001604052806000815250905090565b606061281d82611888565b61285c576040517f08c379a000000000000000000000000000000000000000000000000000000000815260040161285390613bdd565b60405180910390fd5b60006128666127fb565b9050600081511161288657604051806020016040528060008152506128b1565b8061289084611509565b6040516020016128a1929190613761565b6040516020818303038152906040525b915050919050565b60007f2a55205a000000000000000000000000000000000000000000000000000000007bffffffffffffffffffffffffffffffffffffffffffffffffffffffff1916827bffffffffffffffffffffffffffffffffffffffffffffffffffffffff1916148061292c575061292b8261298e565b5b9050919050565b61293d83836129f8565b61294a6000848484612664565b612989576040517f08c379a0000000000000000000000000000000000000000000000000000000008152600401612980906139dd565b60405180910390fd5b505050565b60007f01ffc9a7000000000000000000000000000000000000000000000000000000007bffffffffffffffffffffffffffffffffffffffffffffffffffffffff1916827bffffffffffffffffffffffffffffffffffffffffffffffffffffffff1916149050919050565b600073ffffffffffffffffffffffffffffffffffffffff168273ffffffffffffffffffffffffffffffffffffffff161415612a68576040517f08c379a0000000000000000000000000000000000000000000000000000000008152600401612a5f90613b3d565b60405180910390fd5b612a7181611888565b15612ab1576040517f08c379a0000000000000000000000000000000000000000000000000000000008152600401612aa890613a3d565b60405180910390fd5b612abd600083836125c8565b6001600560008473ffffffffffffffffffffffffffffffffffffffff1673ffffffffffffffffffffffffffffffffffffffff1681526020019081526020016000206000828254612b0d9190613e0e565b92505081905550816004600083815260200190815260200160002060006101000a81548173ffffffffffffffffffffffffffffffffffffffff021916908373ffffffffffffffffffffffffffffffffffffffff160217905550808273ffffffffffffffffffffffffffffffffffffffff16600073ffffffffffffffffffffffffffffffffffffffff167fddf252ad1be2c89b69c2b068fc378daa952ba7f163c4a11628f55a4df523b3ef60405160405180910390a4612bce600083836125cd565b5050565b828054612bde90613ff1565b90600052602060002090601f016020900481019282612c005760008555612c47565b82601f10612c1957805160ff1916838001178555612c47565b82800160010185558215612c47579182015b82811115612c46578251825591602001919060010190612c2b565b5b509050612c549190612c58565b5090565b5b80821115612c71576000816000905550600101612c59565b5090565b6000612c88612c8384613d1d565b613cf8565b90508083825260208201905082856020860282011115612ca757600080fd5b60005b85811015612cf157813567ffffffffffffffff811115612cc957600080fd5b808601612cd68982612e1f565b85526020850194506020840193505050600181019050612caa565b5050509392505050565b6000612d0e612d0984613d49565b613cf8565b905082815260208101848484011115612d2657600080fd5b612d31848285613faf565b509392505050565b6000612d4c612d4784613d7a565b613cf8565b905082815260208101848484011115612d6457600080fd5b612d6f848285613faf565b509392505050565b600081359050612d868161499a565b92915050565b600082601f830112612d9d57600080fd5b8135612dad848260208601612c75565b91505092915050565b600081359050612dc5816149b1565b92915050565b600081359050612dda816149c8565b92915050565b600081519050612def816149c8565b92915050565b600082601f830112612e0657600080fd5b8135612e16848260208601612cfb565b91505092915050565b600082601f830112612e3057600080fd5b8135612e40848260208601612d39565b91505092915050565b600081359050612e58816149df565b92915050565b600081359050612e6d816149f6565b92915050565b600060208284031215612e8557600080fd5b6000612e9384828501612d77565b91505092915050565b60008060408385031215612eaf57600080fd5b6000612ebd85828601612d77565b9250506020612ece85828601612d77565b9150509250929050565b600080600060608486031215612eed57600080fd5b6000612efb86828701612d77565b9350506020612f0c86828701612d77565b9250506040612f1d86828701612e49565b9150509250925092565b60008060008060808587031215612f3d57600080fd5b6000612f4b87828801612d77565b9450506020612f5c87828801612d77565b9350506040612f6d87828801612e49565b925050606085013567ffffffffffffffff811115612f8a57600080fd5b612f9687828801612df5565b91505092959194509250565b60008060408385031215612fb557600080fd5b6000612fc385828601612d77565b9250506020612fd485828601612db6565b9150509250929050565b60008060408385031215612ff157600080fd5b6000612fff85828601612d77565b925050602061301085828601612e49565b9150509250929050565b6000806040838503121561302d57600080fd5b600061303b85828601612d77565b925050602061304c85828601612e5e565b9150509250929050565b60006020828403121561306857600080fd5b600061307684828501612dcb565b91505092915050565b60006020828403121561309157600080fd5b600061309f84828501612de0565b91505092915050565b6000602082840312156130ba57600080fd5b60006130c884828501612e49565b91505092915050565b600080604083850312156130e457600080fd5b60006130f285828601612e49565b925050602083013567ffffffffffffffff81111561310f57600080fd5b61311b85828601612d8c565b9150509250929050565b6000806040838503121561313857600080fd5b600061314685828601612e49565b925050602061315785828601612e49565b9150509250929050565b61316a81613f23565b82525050565b61317981613f35565b82525050565b600061318a82613dc0565b6131948185613dd6565b93506131a4818560208601613fbe565b6131ad81614194565b840191505092915050565b60006131c382613dcb565b6131cd8185613df2565b93506131dd818560208601613fbe565b6131e681614194565b840191505092915050565b60006131fc82613dcb565b6132068185613e03565b9350613216818560208601613fbe565b80840191505092915050565b6000815461322f81613ff1565b6132398186613e03565b94506001821660008114613254576001811461326557613298565b60ff19831686528186019350613298565b61326e85613dab565b60005b8381101561329057815481890152600182019150602081019050613271565b838801955050505b50505092915050565b60006132ae602583613e03565b91506132b9826141a5565b602582019050919050565b60006132d1603283613df2565b91506132dc826141f4565b604082019050919050565b60006132f4602683613df2565b91506132ff82614243565b604082019050919050565b6000613317602583613df2565b915061332282614292565b604082019050919050565b600061333a601c83613df2565b9150613345826142e1565b602082019050919050565b600061335d602483613df2565b91506133688261430a565b604082019050919050565b6000613380601983613df2565b915061338b82614359565b602082019050919050565b60006133a3602c83613df2565b91506133ae82614382565b604082019050919050565b60006133c6600d83613e03565b91506133d1826143d1565b600d82019050919050565b60006133e9600483613e03565b91506133f4826143fa565b600482019050919050565b600061340c603883613df2565b915061341782614423565b604082019050919050565b600061342f602a83613df2565b915061343a82614472565b604082019050919050565b6000613452602983613df2565b915061345d826144c1565b604082019050919050565b6000613475602e83613df2565b915061348082614510565b604082019050919050565b6000613498600283613e03565b91506134a38261455f565b600282019050919050565b60006134bb602083613df2565b91506134c682614588565b602082019050919050565b60006134de602183613df2565b91506134e9826145b1565b604082019050919050565b6000613501603183613df2565b915061350c82614600565b604082019050919050565b6000613524602c83613df2565b915061352f8261464f565b604082019050919050565b6000613547602083613df2565b91506135528261469e565b602082019050919050565b600061356a602f83613df2565b9150613575826146c7565b604082019050919050565b600061358d600a83613e03565b915061359882614716565b600a82019050919050565b60006135b0601e83613df2565b91506135bb8261473f565b602082019050919050565b60006135d3602183613df2565b91506135de82614768565b604082019050919050565b60006135f6601d83613e03565b9150613601826147b7565b601d82019050919050565b6000613619600083613de7565b9150613624826147e0565b600082019050919050565b600061363c601083613df2565b9150613647826147e3565b602082019050919050565b600061365f603183613df2565b915061366a8261480c565b604082019050919050565b6000613682602a83613df2565b915061368d8261485b565b604082019050919050565b60006136a5601f83613df2565b91506136b0826148aa565b602082019050919050565b60006136c8601983613df2565b91506136d3826148d3565b602082019050919050565b60006136eb604983613e03565b91506136f6826148fc565b604982019050919050565b600061370e600283613e03565b915061371982614971565b600282019050919050565b61372d81613f8d565b82525050565b61374461373f82613f8d565b61409d565b82525050565b600061375682846131f1565b915081905092915050565b600061376d82856131f1565b915061377982846131f1565b91508190509392505050565b600061379182856131f1565b915061379c82613701565b91506137a882846131f1565b91508190509392505050565b60006137c08286613222565b91506137cc82856131f1565b91506137d7826133dc565b91506137e382846131f1565b91506137ee826133b9565b9150819050949350505050565b6000613806826132a1565b915061381282846131f1565b915081905092915050565b600061382882613580565b915061383482856131f1565b915061383f826136de565b915061384b82846131f1565b91506138568261348b565b91508190509392505050565b600061386d826135e9565b915061387982846131f1565b915081905092915050565b600061388f8261360c565b9150819050919050565b60006138a58286613733565b6020820191506138b582856131f1565b91506138c18284613733565b602082019150819050949350505050565b60006020820190506138e76000830184613161565b92915050565b60006080820190506139026000830187613161565b61390f6020830186613161565b61391c6040830185613724565b818103606083015261392e818461317f565b905095945050505050565b600060408201905061394e6000830185613161565b61395b6020830184613724565b9392505050565b60006020820190506139776000830184613170565b92915050565b6000602082019050818103600083015261399781846131b8565b905092915050565b600060608201905081810360008301526139b981866131b8565b90506139c86020830185613724565b6139d56040830184613161565b949350505050565b600060208201905081810360008301526139f6816132c4565b9050919050565b60006020820190508181036000830152613a16816132e7565b9050919050565b60006020820190508181036000830152613a368161330a565b9050919050565b60006020820190508181036000830152613a568161332d565b9050919050565b60006020820190508181036000830152613a7681613350565b9050919050565b60006020820190508181036000830152613a9681613373565b9050919050565b60006020820190508181036000830152613ab681613396565b9050919050565b60006020820190508181036000830152613ad6816133ff565b9050919050565b60006020820190508181036000830152613af681613422565b9050919050565b60006020820190508181036000830152613b1681613445565b9050919050565b60006020820190508181036000830152613b3681613468565b9050919050565b60006020820190508181036000830152613b56816134ae565b9050919050565b60006020820190508181036000830152613b76816134d1565b9050919050565b60006020820190508181036000830152613b96816134f4565b9050919050565b60006020820190508181036000830152613bb681613517565b9050919050565b60006020820190508181036000830152613bd68161353a565b9050919050565b60006020820190508181036000830152613bf68161355d565b9050919050565b60006020820190508181036000830152613c16816135a3565b9050919050565b60006020820190508181036000830152613c36816135c6565b9050919050565b60006020820190508181036000830152613c568161362f565b9050919050565b60006020820190508181036000830152613c7681613652565b9050919050565b60006020820190508181036000830152613c9681613675565b9050919050565b60006020820190508181036000830152613cb681613698565b9050919050565b60006020820190508181036000830152613cd6816136bb565b9050919050565b6000602082019050613cf26000830184613724565b92915050565b6000613d02613d13565b9050613d0e8282614023565b919050565b6000604051905090565b600067ffffffffffffffff821115613d3857613d37614165565b5b602082029050602081019050919050565b600067ffffffffffffffff821115613d6457613d63614165565b5b613d6d82614194565b9050602081019050919050565b600067ffffffffffffffff821115613d9557613d94614165565b5b613d9e82614194565b9050602081019050919050565b60008190508160005260206000209050919050565b600081519050919050565b600081519050919050565b600082825260208201905092915050565b600081905092915050565b600082825260208201905092915050565b600081905092915050565b6000613e1982613f8d565b9150613e2483613f8d565b9250827fffffffffffffffffffffffffffffffffffffffffffffffffffffffffffffffff03821115613e5957613e586140d8565b5b828201905092915050565b6000613e6f82613f8d565b9150613e7a83613f8d565b925082613e8a57613e89614107565b5b828204905092915050565b6000613ea082613f8d565b9150613eab83613f8d565b9250817fffffffffffffffffffffffffffffffffffffffffffffffffffffffffffffffff0483118215151615613ee457613ee36140d8565b5b828202905092915050565b6000613efa82613f8d565b9150613f0583613f8d565b925082821015613f1857613f176140d8565b5b828203905092915050565b6000613f2e82613f6d565b9050919050565b60008115159050919050565b60007fffffffff0000000000000000000000000000000000000000000000000000000082169050919050565b600073ffffffffffffffffffffffffffffffffffffffff82169050919050565b6000819050919050565b60006bffffffffffffffffffffffff82169050919050565b82818337600083830152505050565b60005b83811015613fdc578082015181840152602081019050613fc1565b83811115613feb576000848401525b50505050565b6000600282049050600182168061400957607f821691505b6020821081141561401d5761401c614136565b5b50919050565b61402c82614194565b810181811067ffffffffffffffff8211171561404b5761404a614165565b5b80604052505050565b600061405f82613f8d565b91507fffffffffffffffffffffffffffffffffffffffffffffffffffffffffffffffff821415614092576140916140d8565b5b600182019050919050565b6000819050919050565b60006140b282613f8d565b91506140bd83613f8d565b9250826140cd576140cc614107565b5b828206905092915050565b7f4e487b7100000000000000000000000000000000000000000000000000000000600052601160045260246000fd5b7f4e487b7100000000000000000000000000000000000000000000000000000000600052601260045260246000fd5b7f4e487b7100000000000000000000000000000000000000000000000000000000600052602260045260246000fd5b7f4e487b7100000000000000000000000000000000000000000000000000000000600052604160045260246000fd5b6000601f19601f8301169050919050565b7f68747470733a2f2f6e6674707265766965772e30786465762e636f6465732f3f60008201527f636f64653d000000000000000000000000000000000000000000000000000000602082015250565b7f4552433732313a207472616e7366657220746f206e6f6e20455243373231526560008201527f63656976657220696d706c656d656e7465720000000000000000000000000000602082015250565b7f4f776e61626c653a206e6577206f776e657220697320746865207a65726f206160008201527f6464726573730000000000000000000000000000000000000000000000000000602082015250565b7f4552433732313a207472616e736665722066726f6d20696e636f72726563742060008201527f6f776e6572000000000000000000000000000000000000000000000000000000602082015250565b7f4552433732313a20746f6b656e20616c7265616479206d696e74656400000000600082015250565b7f4552433732313a207472616e7366657220746f20746865207a65726f2061646460008201527f7265737300000000000000000000000000000000000000000000000000000000602082015250565b7f4552433732313a20617070726f766520746f2063616c6c657200000000000000600082015250565b7f4552433732313a206f70657261746f7220717565727920666f72206e6f6e657860008201527f697374656e7420746f6b656e0000000000000000000000000000000000000000602082015250565b7f3c2f746578743e3c2f7376673e00000000000000000000000000000000000000600082015250565b7f0a546f0a00000000000000000000000000000000000000000000000000000000600082015250565b7f4552433732313a20617070726f76652063616c6c6572206973206e6f74206f7760008201527f6e6572206e6f7220617070726f76656420666f7220616c6c0000000000000000602082015250565b7f4552433732313a2062616c616e636520717565727920666f7220746865207a6560008201527f726f206164647265737300000000000000000000000000000000000000000000602082015250565b7f4552433732313a206f776e657220717565727920666f72206e6f6e657869737460008201527f656e7420746f6b656e0000000000000000000000000000000000000000000000602082015250565b7f45524337323155524953746f726167653a2055524920736574206f66206e6f6e60008201527f6578697374656e7420746f6b656e000000000000000000000000000000000000602082015250565b7f227d000000000000000000000000000000000000000000000000000000000000600082015250565b7f4552433732313a206d696e7420746f20746865207a65726f2061646472657373600082015250565b7f4e6f7420656e6f75676820546f6b656e20726573657276656420616e796d6f7260008201527f6500000000000000000000000000000000000000000000000000000000000000602082015250565b7f45524337323155524953746f726167653a2055524920717565727920666f722060008201527f6e6f6e6578697374656e7420746f6b656e000000000000000000000000000000602082015250565b7f4552433732313a20617070726f76656420717565727920666f72206e6f6e657860008201527f697374656e7420746f6b656e0000000000000000000000000000000000000000602082015250565b7f4f776e61626c653a2063616c6c6572206973206e6f7420746865206f776e6572600082015250565b7f4552433732314d657461646174613a2055524920717565727920666f72206e6f60008201527f6e6578697374656e7420746f6b656e0000000000000000000000000000000000602082015250565b7f7b226e616d65223a202200000000000000000000000000000000000000000000600082015250565b7f546f6b656e2076616c75652073656e74206973206e6f7420656e6f7567680000600082015250565b7f4552433732313a20617070726f76616c20746f2063757272656e74206f776e6560008201527f7200000000000000000000000000000000000000000000000000000000000000602082015250565b7f646174613a6170706c69636174696f6e2f6a736f6e3b6261736536342c000000600082015250565b50565b7f5472616e73666572206661696c65642e00000000000000000000000000000000600082015250565b7f4552433732313a207472616e736665722063616c6c6572206973206e6f74206f60008201527f776e6572206e6f7220617070726f766564000000000000000000000000000000602082015250565b7f455243323938313a20726f79616c7479206665652077696c6c2065786365656460008201527f2073616c65507269636500000000000000000000000000000000000000000000602082015250565b7f5265656e7472616e637947756172643a207265656e7472616e742063616c6c00600082015250565b7f455243323938313a20696e76616c696420726563656976657200000000000000600082015250565b7f222c20226465736372697074696f6e223a2022596f7572204570696320576f7260008201527f6473222c2022696d616765223a2022646174613a696d6167652f7376672b786d60208201527f6c3b6261736536342c0000000000000000000000000000000000000000000000604082015250565b7f546f000000000000000000000000000000000000000000000000000000000000600082015250565b6149a381613f23565b81146149ae57600080fd5b50565b6149ba81613f35565b81146149c557600080fd5b50565b6149d181613f41565b81146149dc57600080fd5b50565b6149e881613f8d565b81146149f357600080fd5b50565b6149ff81613f97565b8114614a0a57600080fd5b5056fe416e204e465420772f20494420257320686173206265656e206d696e74656420746f2025734142434445464748494a4b4c4d4e4f505152535455565758595a6162636465666768696a6b6c6d6e6f707172737475767778797a303132333435363738392b2fa26469706673582212201cac0793c3a94f554120f1dc28d92bfaff834a877ba4c4c2f711eb7109c9dfe864736f6c63430008040033416e204e465420772f20494420257320686173206265656e206d696e74656420746f2025733c73766720786d6c6e733d27687474703a2f2f7777772e77332e6f72672f323030302f73766727207072657365727665417370656374526174696f3d27784d696e594d696e206d656574272076696577426f783d273020302033353020333530273e3c7374796c653e2e62617365207b2066696c6c3a2077686974653b20666f6e742d66616d696c793a2073657269663b20666f6e742d73697a653a20323470783b207d3c2f7374796c653e3c726563742077696474683d273130302527206865696768743d2731303025272066696c6c3d27626c61636b27202f3e3c7465787420783d273530252720793d273530252720636c6173733d27626173652720646f6d696e616e742d626173656c696e653d276d6964646c652720746578742d616e63686f723d276d6964646c65273e4142434445464748494a4b4c4d4e4f505152535455565758595a6162636465666768696a6b6c6d6e6f707172737475767778797a303132333435363738392b2f",
  "linkReferences": {},
  "deployedLinkReferences": {}
}